{
  "_format": "hh-sol-artifact-1",
  "contractName": "My_Token",
  "sourceName": "contracts/Mytoken.sol",
  "abi": [
    {
      "inputs": [],
      "stateMutability": "nonpayable",
      "type": "constructor"
    },
    {
      "inputs": [
        {
          "internalType": "address",
          "name": "spender",
          "type": "address"
        },
        {
          "internalType": "uint256",
          "name": "allowance",
          "type": "uint256"
        },
        {
          "internalType": "uint256",
          "name": "needed",
          "type": "uint256"
        }
      ],
      "name": "ERC20InsufficientAllowance",
      "type": "error"
    },
    {
      "inputs": [
        {
          "internalType": "address",
          "name": "sender",
          "type": "address"
        },
        {
          "internalType": "uint256",
          "name": "balance",
          "type": "uint256"
        },
        {
          "internalType": "uint256",
          "name": "needed",
          "type": "uint256"
        }
      ],
      "name": "ERC20InsufficientBalance",
      "type": "error"
    },
    {
      "inputs": [
        {
          "internalType": "address",
          "name": "approver",
          "type": "address"
        }
      ],
      "name": "ERC20InvalidApprover",
      "type": "error"
    },
    {
      "inputs": [
        {
          "internalType": "address",
          "name": "receiver",
          "type": "address"
        }
      ],
      "name": "ERC20InvalidReceiver",
      "type": "error"
    },
    {
      "inputs": [
        {
          "internalType": "address",
          "name": "sender",
          "type": "address"
        }
      ],
      "name": "ERC20InvalidSender",
      "type": "error"
    },
    {
      "inputs": [
        {
          "internalType": "address",
          "name": "spender",
          "type": "address"
        }
      ],
      "name": "ERC20InvalidSpender",
      "type": "error"
    },
    {
      "anonymous": false,
      "inputs": [
        {
          "indexed": true,
          "internalType": "address",
          "name": "owner",
          "type": "address"
        },
        {
          "indexed": true,
          "internalType": "address",
          "name": "spender",
          "type": "address"
        },
        {
          "indexed": false,
          "internalType": "uint256",
          "name": "value",
          "type": "uint256"
        }
      ],
      "name": "Approval",
      "type": "event"
    },
    {
      "anonymous": false,
      "inputs": [
        {
          "indexed": true,
          "internalType": "address",
          "name": "from",
          "type": "address"
        },
        {
          "indexed": true,
          "internalType": "address",
          "name": "to",
          "type": "address"
        },
        {
          "indexed": false,
          "internalType": "uint256",
          "name": "value",
          "type": "uint256"
        }
      ],
      "name": "Transfer",
      "type": "event"
    },
    {
      "inputs": [],
      "name": "_name",
      "outputs": [
        {
          "internalType": "string",
          "name": "",
          "type": "string"
        }
      ],
      "stateMutability": "view",
      "type": "function"
    },
    {
      "inputs": [],
      "name": "_symbol",
      "outputs": [
        {
          "internalType": "string",
          "name": "",
          "type": "string"
        }
      ],
      "stateMutability": "view",
      "type": "function"
    },
    {
      "inputs": [
        {
          "internalType": "address",
          "name": "owner",
          "type": "address"
        },
        {
          "internalType": "address",
          "name": "spender",
          "type": "address"
        }
      ],
      "name": "allowance",
      "outputs": [
        {
          "internalType": "uint256",
          "name": "",
          "type": "uint256"
        }
      ],
      "stateMutability": "view",
      "type": "function"
    },
    {
      "inputs": [
        {
          "internalType": "address",
          "name": "spender",
          "type": "address"
        },
        {
          "internalType": "uint256",
          "name": "value",
          "type": "uint256"
        }
      ],
      "name": "approve",
      "outputs": [
        {
          "internalType": "bool",
          "name": "",
          "type": "bool"
        }
      ],
      "stateMutability": "nonpayable",
      "type": "function"
    },
    {
      "inputs": [
        {
          "internalType": "address",
          "name": "account",
          "type": "address"
        }
      ],
      "name": "balanceOf",
      "outputs": [
        {
          "internalType": "uint256",
          "name": "",
          "type": "uint256"
        }
      ],
      "stateMutability": "view",
      "type": "function"
    },
    {
      "inputs": [],
      "name": "decimals",
      "outputs": [
        {
          "internalType": "uint8",
          "name": "",
          "type": "uint8"
        }
      ],
      "stateMutability": "view",
      "type": "function"
    },
    {
      "inputs": [],
      "name": "name",
      "outputs": [
        {
          "internalType": "string",
          "name": "",
          "type": "string"
        }
      ],
      "stateMutability": "view",
      "type": "function"
    },
    {
      "inputs": [],
      "name": "symbol",
      "outputs": [
        {
          "internalType": "string",
          "name": "",
          "type": "string"
        }
      ],
      "stateMutability": "view",
      "type": "function"
    },
    {
      "inputs": [],
      "name": "totalSupply",
      "outputs": [
        {
          "internalType": "uint256",
          "name": "",
          "type": "uint256"
        }
      ],
      "stateMutability": "view",
      "type": "function"
    },
    {
      "inputs": [
        {
          "internalType": "address",
          "name": "to",
          "type": "address"
        },
        {
          "internalType": "uint256",
          "name": "value",
          "type": "uint256"
        }
      ],
      "name": "transfer",
      "outputs": [
        {
          "internalType": "bool",
          "name": "",
          "type": "bool"
        }
      ],
      "stateMutability": "nonpayable",
      "type": "function"
    },
    {
      "inputs": [
        {
          "internalType": "address",
          "name": "from",
          "type": "address"
        },
        {
          "internalType": "address",
          "name": "to",
          "type": "address"
        },
        {
          "internalType": "uint256",
          "name": "value",
          "type": "uint256"
        }
      ],
      "name": "transferFrom",
      "outputs": [
        {
          "internalType": "bool",
          "name": "",
          "type": "bool"
        }
      ],
      "stateMutability": "nonpayable",
      "type": "function"
    }
  ],
  "bytecode": "0x60806040526040518060400160405280600881526020017f5061726b53696f6e000000000000000000000000000000000000000000000000815250600590816200004a919062000757565b506040518060400160405280600381526020017f50534f00000000000000000000000000000000000000000000000000000000008152506006908162000091919062000757565b506064600755348015620000a457600080fd5b5060058054620000b49062000546565b80601f0160208091040260200160405190810160405280929190818152602001828054620000e29062000546565b8015620001335780601f10620001075761010080835404028352916020019162000133565b820191906000526020600020905b8154815290600101906020018083116200011557829003601f168201915b505050505060068054620001479062000546565b80601f0160208091040260200160405190810160405280929190818152602001828054620001759062000546565b8015620001c65780601f106200019a57610100808354040283529160200191620001c6565b820191906000526020600020905b815481529060010190602001808311620001a857829003601f168201915b50505050508160039081620001dc919062000757565b508060049081620001ee919062000757565b5050506200021a33670de0b6b3a76400006007546200020e91906200086d565b6200022060201b60201c565b620009c0565b600073ffffffffffffffffffffffffffffffffffffffff168273ffffffffffffffffffffffffffffffffffffffff1603620002955760006040517fec442f050000000000000000000000000000000000000000000000000000000081526004016200028c9190620008fd565b60405180910390fd5b620002a960008383620002ad60201b60201c565b5050565b600073ffffffffffffffffffffffffffffffffffffffff168373ffffffffffffffffffffffffffffffffffffffff160362000303578060026000828254620002f691906200091a565b92505081905550620003d9565b60008060008573ffffffffffffffffffffffffffffffffffffffff1673ffffffffffffffffffffffffffffffffffffffff1681526020019081526020016000205490508181101562000392578381836040517fe450d38c000000000000000000000000000000000000000000000000000000008152600401620003899392919062000966565b60405180910390fd5b8181036000808673ffffffffffffffffffffffffffffffffffffffff1673ffffffffffffffffffffffffffffffffffffffff16815260200190815260200160002081905550505b600073ffffffffffffffffffffffffffffffffffffffff168273ffffffffffffffffffffffffffffffffffffffff160362000424578060026000828254039250508190555062000471565b806000808473ffffffffffffffffffffffffffffffffffffffff1673ffffffffffffffffffffffffffffffffffffffff168152602001908152602001600020600082825401925050819055505b8173ffffffffffffffffffffffffffffffffffffffff168373ffffffffffffffffffffffffffffffffffffffff167fddf252ad1be2c89b69c2b068fc378daa952ba7f163c4a11628f55a4df523b3ef83604051620004d09190620009a3565b60405180910390a3505050565b600081519050919050565b7f4e487b7100000000000000000000000000000000000000000000000000000000600052604160045260246000fd5b7f4e487b7100000000000000000000000000000000000000000000000000000000600052602260045260246000fd5b600060028204905060018216806200055f57607f821691505b60208210810362000575576200057462000517565b5b50919050565b60008190508160005260206000209050919050565b60006020601f8301049050919050565b600082821b905092915050565b600060088302620005df7fffffffffffffffffffffffffffffffffffffffffffffffffffffffffffffffff82620005a0565b620005eb8683620005a0565b95508019841693508086168417925050509392505050565b6000819050919050565b6000819050919050565b600062000638620006326200062c8462000603565b6200060d565b62000603565b9050919050565b6000819050919050565b620006548362000617565b6200066c62000663826200063f565b848454620005ad565b825550505050565b600090565b6200068362000674565b6200069081848462000649565b505050565b5b81811015620006b857620006ac60008262000679565b60018101905062000696565b5050565b601f8211156200070757620006d1816200057b565b620006dc8462000590565b81016020851015620006ec578190505b62000704620006fb8562000590565b83018262000695565b50505b505050565b600082821c905092915050565b60006200072c600019846008026200070c565b1980831691505092915050565b600062000747838362000719565b9150826002028217905092915050565b6200076282620004dd565b67ffffffffffffffff8111156200077e576200077d620004e8565b5b6200078a825462000546565b62000797828285620006bc565b600060209050601f831160018114620007cf5760008415620007ba578287015190505b620007c6858262000739565b86555062000836565b601f198416620007df866200057b565b60005b828110156200080957848901518255600182019150602085019450602081019050620007e2565b8683101562000829578489015162000825601f89168262000719565b8355505b6001600288020188555050505b505050505050565b7f4e487b7100000000000000000000000000000000000000000000000000000000600052601160045260246000fd5b60006200087a8262000603565b9150620008878362000603565b9250828202620008978162000603565b91508282048414831517620008b157620008b06200083e565b5b5092915050565b600073ffffffffffffffffffffffffffffffffffffffff82169050919050565b6000620008e582620008b8565b9050919050565b620008f781620008d8565b82525050565b6000602082019050620009146000830184620008ec565b92915050565b6000620009278262000603565b9150620009348362000603565b92508282019050808211156200094f576200094e6200083e565b5b92915050565b620009608162000603565b82525050565b60006060820190506200097d6000830186620008ec565b6200098c602083018562000955565b6200099b604083018462000955565b949350505050565b6000602082019050620009ba600083018462000955565b92915050565b610fc380620009d06000396000f3fe608060405234801561001057600080fd5b50600436106100a95760003560e01c806370a082311161007157806370a082311461016857806395d89b4114610198578063a9059cbb146101b6578063b09f1266146101e6578063d28d885214610204578063dd62ed3e14610222576100a9565b806306fdde03146100ae578063095ea7b3146100cc57806318160ddd146100fc57806323b872dd1461011a578063313ce5671461014a575b600080fd5b6100b6610252565b6040516100c39190610c17565b60405180910390f35b6100e660048036038101906100e19190610cd2565b6102e4565b6040516100f39190610d2d565b60405180910390f35b610104610307565b6040516101119190610d57565b60405180910390f35b610134600480360381019061012f9190610d72565b610311565b6040516101419190610d2d565b60405180910390f35b610152610340565b60405161015f9190610de1565b60405180910390f35b610182600480360381019061017d9190610dfc565b610349565b60405161018f9190610d57565b60405180910390f35b6101a0610391565b6040516101ad9190610c17565b60405180910390f35b6101d060048036038101906101cb9190610cd2565b610423565b6040516101dd9190610d2d565b60405180910390f35b6101ee610446565b6040516101fb9190610c17565b60405180910390f35b61020c6104d4565b6040516102199190610c17565b60405180910390f35b61023c60048036038101906102379190610e29565b610562565b6040516102499190610d57565b60405180910390f35b60606003805461026190610e98565b80601f016020809104026020016040519081016040528092919081815260200182805461028d90610e98565b80156102da5780601f106102af576101008083540402835291602001916102da565b820191906000526020600020905b8154815290600101906020018083116102bd57829003601f168201915b5050505050905090565b6000806102ef6105e9565b90506102fc8185856105f1565b600191505092915050565b6000600254905090565b60008061031c6105e9565b9050610329858285610603565b610334858585610697565b60019150509392505050565b60006012905090565b60008060008373ffffffffffffffffffffffffffffffffffffffff1673ffffffffffffffffffffffffffffffffffffffff168152602001908152602001600020549050919050565b6060600480546103a090610e98565b80601f01602080910402602001604051908101604052809291908181526020018280546103cc90610e98565b80156104195780601f106103ee57610100808354040283529160200191610419565b820191906000526020600020905b8154815290600101906020018083116103fc57829003601f168201915b5050505050905090565b60008061042e6105e9565b905061043b818585610697565b600191505092915050565b6006805461045390610e98565b80601f016020809104026020016040519081016040528092919081815260200182805461047f90610e98565b80156104cc5780601f106104a1576101008083540402835291602001916104cc565b820191906000526020600020905b8154815290600101906020018083116104af57829003601f168201915b505050505081565b600580546104e190610e98565b80601f016020809104026020016040519081016040528092919081815260200182805461050d90610e98565b801561055a5780601f1061052f5761010080835404028352916020019161055a565b820191906000526020600020905b81548152906001019060200180831161053d57829003601f168201915b505050505081565b6000600160008473ffffffffffffffffffffffffffffffffffffffff1673ffffffffffffffffffffffffffffffffffffffff16815260200190815260200160002060008373ffffffffffffffffffffffffffffffffffffffff1673ffffffffffffffffffffffffffffffffffffffff16815260200190815260200160002054905092915050565b600033905090565b6105fe838383600161078b565b505050565b600061060f8484610562565b90507fffffffffffffffffffffffffffffffffffffffffffffffffffffffffffffffff81146106915781811015610681578281836040517ffb8f41b200000000000000000000000000000000000000000000000000000000815260040161067893929190610ed8565b60405180910390fd5b6106908484848403600061078b565b5b50505050565b600073ffffffffffffffffffffffffffffffffffffffff168373ffffffffffffffffffffffffffffffffffffffff16036107095760006040517f96c6fd1e0000000000000000000000000000000000000000000000000000000081526004016107009190610f0f565b60405180910390fd5b600073ffffffffffffffffffffffffffffffffffffffff168273ffffffffffffffffffffffffffffffffffffffff160361077b5760006040517fec442f050000000000000000000000000000000000000000000000000000000081526004016107729190610f0f565b60405180910390fd5b610786838383610962565b505050565b600073ffffffffffffffffffffffffffffffffffffffff168473ffffffffffffffffffffffffffffffffffffffff16036107fd5760006040517fe602df050000000000000000000000000000000000000000000000000000000081526004016107f49190610f0f565b60405180910390fd5b600073ffffffffffffffffffffffffffffffffffffffff168373ffffffffffffffffffffffffffffffffffffffff160361086f5760006040517f94280d620000000000000000000000000000000000000000000000000000000081526004016108669190610f0f565b60405180910390fd5b81600160008673ffffffffffffffffffffffffffffffffffffffff1673ffffffffffffffffffffffffffffffffffffffff16815260200190815260200160002060008573ffffffffffffffffffffffffffffffffffffffff1673ffffffffffffffffffffffffffffffffffffffff16815260200190815260200160002081905550801561095c578273ffffffffffffffffffffffffffffffffffffffff168473ffffffffffffffffffffffffffffffffffffffff167f8c5be1e5ebec7d5bd14f71427d1e84f3dd0314c0f7b2291e5b200ac8c7c3b925846040516109539190610d57565b60405180910390a35b50505050565b600073ffffffffffffffffffffffffffffffffffffffff168373ffffffffffffffffffffffffffffffffffffffff16036109b45780600260008282546109a89190610f59565b92505081905550610a87565b60008060008573ffffffffffffffffffffffffffffffffffffffff1673ffffffffffffffffffffffffffffffffffffffff16815260200190815260200160002054905081811015610a40578381836040517fe450d38c000000000000000000000000000000000000000000000000000000008152600401610a3793929190610ed8565b60405180910390fd5b8181036000808673ffffffffffffffffffffffffffffffffffffffff1673ffffffffffffffffffffffffffffffffffffffff16815260200190815260200160002081905550505b600073ffffffffffffffffffffffffffffffffffffffff168273ffffffffffffffffffffffffffffffffffffffff1603610ad05780600260008282540392505081905550610b1d565b806000808473ffffffffffffffffffffffffffffffffffffffff1673ffffffffffffffffffffffffffffffffffffffff168152602001908152602001600020600082825401925050819055505b8173ffffffffffffffffffffffffffffffffffffffff168373ffffffffffffffffffffffffffffffffffffffff167fddf252ad1be2c89b69c2b068fc378daa952ba7f163c4a11628f55a4df523b3ef83604051610b7a9190610d57565b60405180910390a3505050565b600081519050919050565b600082825260208201905092915050565b60005b83811015610bc1578082015181840152602081019050610ba6565b60008484015250505050565b6000601f19601f8301169050919050565b6000610be982610b87565b610bf38185610b92565b9350610c03818560208601610ba3565b610c0c81610bcd565b840191505092915050565b60006020820190508181036000830152610c318184610bde565b905092915050565b600080fd5b600073ffffffffffffffffffffffffffffffffffffffff82169050919050565b6000610c6982610c3e565b9050919050565b610c7981610c5e565b8114610c8457600080fd5b50565b600081359050610c9681610c70565b92915050565b6000819050919050565b610caf81610c9c565b8114610cba57600080fd5b50565b600081359050610ccc81610ca6565b92915050565b60008060408385031215610ce957610ce8610c39565b5b6000610cf785828601610c87565b9250506020610d0885828601610cbd565b9150509250929050565b60008115159050919050565b610d2781610d12565b82525050565b6000602082019050610d426000830184610d1e565b92915050565b610d5181610c9c565b82525050565b6000602082019050610d6c6000830184610d48565b92915050565b600080600060608486031215610d8b57610d8a610c39565b5b6000610d9986828701610c87565b9350506020610daa86828701610c87565b9250506040610dbb86828701610cbd565b9150509250925092565b600060ff82169050919050565b610ddb81610dc5565b82525050565b6000602082019050610df66000830184610dd2565b92915050565b600060208284031215610e1257610e11610c39565b5b6000610e2084828501610c87565b91505092915050565b60008060408385031215610e4057610e3f610c39565b5b6000610e4e85828601610c87565b9250506020610e5f85828601610c87565b9150509250929050565b7f4e487b7100000000000000000000000000000000000000000000000000000000600052602260045260246000fd5b60006002820490506001821680610eb057607f821691505b602082108103610ec357610ec2610e69565b5b50919050565b610ed281610c5e565b82525050565b6000606082019050610eed6000830186610ec9565b610efa6020830185610d48565b610f076040830184610d48565b949350505050565b6000602082019050610f246000830184610ec9565b92915050565b7f4e487b7100000000000000000000000000000000000000000000000000000000600052601160045260246000fd5b6000610f6482610c9c565b9150610f6f83610c9c565b9250828201905080821115610f8757610f86610f2a565b5b9291505056fea2646970667358221220b8409acbb263a999aadddcc82554032070e96d9cf86c0313fdfcb6d9c08d5ae764736f6c63430008140033",
  "linkReferences": {},
  "deployedLinkReferences": {}
}